{
  "_format": "hh-sol-artifact-1",
  "contractName": "WavePortal",
  "sourceName": "contracts/wavePortal.sol",
  "abi": [
    {
      "inputs": [],
      "stateMutability": "payable",
      "type": "constructor"
    },
    {
      "anonymous": false,
      "inputs": [
        {
          "indexed": true,
          "internalType": "address",
          "name": "from",
          "type": "address"
        },
        {
          "indexed": false,
          "internalType": "uint256",
          "name": "timestamp",
          "type": "uint256"
        },
        {
          "indexed": false,
          "internalType": "string",
          "name": "message",
          "type": "string"
        }
      ],
      "name": "NewWave",
      "type": "event"
    },
    {
      "inputs": [],
      "name": "getAllWaves",
      "outputs": [
        {
          "components": [
            {
              "internalType": "address",
              "name": "waver",
              "type": "address"
            },
            {
              "internalType": "string",
              "name": "message",
              "type": "string"
            },
            {
              "internalType": "uint256",
              "name": "timestamp",
              "type": "uint256"
            }
          ],
          "internalType": "struct WavePortal.Wave[]",
          "name": "",
          "type": "tuple[]"
        }
      ],
      "stateMutability": "view",
      "type": "function"
    },
    {
      "inputs": [],
      "name": "getWaves",
      "outputs": [
        {
          "internalType": "uint256",
          "name": "",
          "type": "uint256"
        }
      ],
      "stateMutability": "view",
      "type": "function"
    },
    {
      "inputs": [
        {
          "internalType": "address",
          "name": "",
          "type": "address"
        }
      ],
      "name": "lastWavedAt",
      "outputs": [
        {
          "internalType": "uint256",
          "name": "",
          "type": "uint256"
        }
      ],
      "stateMutability": "view",
      "type": "function"
    },
    {
      "inputs": [
        {
          "internalType": "string",
          "name": "_message",
          "type": "string"
        }
      ],
      "name": "wave",
      "outputs": [],
      "stateMutability": "nonpayable",
      "type": "function"
    }
  ],
  "bytecode": "0x60806040526200003360405180606001604052806031815260200162001446603191396200005b60201b6200063c1760201c565b60644244620000439190620001a8565b6200004f919062000245565b600181905550620002ec565b620000fb8160405160240162000072919062000168565b6040516020818303038152906040527f41304fac000000000000000000000000000000000000000000000000000000007bffffffffffffffffffffffffffffffffffffffffffffffffffffffff19166020820180517bffffffffffffffffffffffffffffffffffffffffffffffffffffffff8381831617835250505050620000fe60201b60201c565b50565b60008151905060006a636f6e736f6c652e6c6f679050602083016000808483855afa5050505050565b600062000134826200018c565b62000140818562000197565b9350620001528185602086016200020f565b6200015d81620002db565b840191505092915050565b6000602082019050818103600083015262000184818462000127565b905092915050565b600081519050919050565b600082825260208201905092915050565b6000620001b58262000205565b9150620001c28362000205565b9250827fffffffffffffffffffffffffffffffffffffffffffffffffffffffffffffffff03821115620001fa57620001f96200027d565b5b828201905092915050565b6000819050919050565b60005b838110156200022f57808201518184015260208101905062000212565b838111156200023f576000848401525b50505050565b6000620002528262000205565b91506200025f8362000205565b925082620002725762000271620002ac565b5b828206905092915050565b7f4e487b7100000000000000000000000000000000000000000000000000000000600052601160045260246000fd5b7f4e487b7100000000000000000000000000000000000000000000000000000000600052601260045260246000fd5b6000601f19601f8301169050919050565b61114a80620002fc6000396000f3fe608060405234801561001057600080fd5b506004361061004c5760003560e01c8063449d46c014610051578063a42a46631461006d578063a9d42f7e1461009d578063bd43a908146100bb575b600080fd5b61006b6004803603810190610066919061097f565b6100d9565b005b61008760048036038101906100829190610956565b610488565b6040516100949190610cec565b60405180910390f35b6100a56104a0565b6040516100b29190610cec565b60405180910390f35b6100c36104eb565b6040516100d09190610be8565b60405180910390f35b42601e600360003373ffffffffffffffffffffffffffffffffffffffff1673ffffffffffffffffffffffffffffffffffffffff168152602001908152602001600020546101269190610dfe565b10610166576040517f08c379a000000000000000000000000000000000000000000000000000000000815260040161015d90610ccc565b60405180910390fd5b42600360003373ffffffffffffffffffffffffffffffffffffffff1673ffffffffffffffffffffffffffffffffffffffff16815260200190815260200160002081905550600260405180606001604052803373ffffffffffffffffffffffffffffffffffffffff16815260200183815260200142815250908060018154018082558091505060019003906000526020600020906003020160009091909190915060008201518160000160006101000a81548173ffffffffffffffffffffffffffffffffffffffff021916908373ffffffffffffffffffffffffffffffffffffffff1602179055506020820151816001019080519060200190610269929190610836565b5060408201518160020155505060016000808282546102889190610dfe565b925050819055506064444261029d9190610dfe565b6102a79190610f35565b6001819055506102ee6040518060400160405280601581526020017f52616e646f6d20232067656e65726174653a20256400000000000000000000008152506001546106d5565b60326001541015610435576103386040518060400160405280600681526020017f257320776f6e000000000000000000000000000000000000000000000000000081525033610771565b6000655af3107a4000905047811115610386576040517f08c379a000000000000000000000000000000000000000000000000000000000815260040161037d90610cac565b60405180910390fd5b60003373ffffffffffffffffffffffffffffffffffffffff16826040516103ac90610bd3565b60006040518083038185875af1925050503d80600081146103e9576040519150601f19603f3d011682016040523d82523d6000602084013e6103ee565b606091505b5050905080610432576040517f08c379a000000000000000000000000000000000000000000000000000000000815260040161042990610c8c565b60405180910390fd5b50505b3373ffffffffffffffffffffffffffffffffffffffff167f5f7e16dc676677766a70e9c5628aa6c54ddb8b6e5188e2ae1e1f17f1ffbea716428360405161047d929190610d07565b60405180910390a250565b60036020528060005260406000206000915090505481565b60006104e36040518060400160405280601f81526020017f77652068616420256420746f74616c206e756d626572206f66207761766573008152506000546106d5565b600054905090565b60606002805480602002602001604051908101604052809291908181526020016000905b8282101561063357838290600052602060002090600302016040518060600160405290816000820160009054906101000a900473ffffffffffffffffffffffffffffffffffffffff1673ffffffffffffffffffffffffffffffffffffffff1673ffffffffffffffffffffffffffffffffffffffff16815260200160018201805461059890610ed2565b80601f01602080910402602001604051908101604052809291908181526020018280546105c490610ed2565b80156106115780601f106105e657610100808354040283529160200191610611565b820191906000526020600020905b8154815290600101906020018083116105f457829003601f168201915b505050505081526020016002820154815250508152602001906001019061050f565b50505050905090565b6106d2816040516024016106509190610c0a565b6040516020818303038152906040527f41304fac000000000000000000000000000000000000000000000000000000007bffffffffffffffffffffffffffffffffffffffffffffffffffffffff19166020820180517bffffffffffffffffffffffffffffffffffffffffffffffffffffffff838183161783525050505061080d565b50565b61076d82826040516024016106eb929190610c5c565b6040516020818303038152906040527f9710a9d0000000000000000000000000000000000000000000000000000000007bffffffffffffffffffffffffffffffffffffffffffffffffffffffff19166020820180517bffffffffffffffffffffffffffffffffffffffffffffffffffffffff838183161783525050505061080d565b5050565b6108098282604051602401610787929190610c2c565b6040516020818303038152906040527f319af333000000000000000000000000000000000000000000000000000000007bffffffffffffffffffffffffffffffffffffffffffffffffffffffff19166020820180517bffffffffffffffffffffffffffffffffffffffffffffffffffffffff838183161783525050505061080d565b5050565b60008151905060006a636f6e736f6c652e6c6f679050602083016000808483855afa5050505050565b82805461084290610ed2565b90600052602060002090601f01602090048101928261086457600085556108ab565b82601f1061087d57805160ff19168380011785556108ab565b828001600101855582156108ab579182015b828111156108aa57825182559160200191906001019061088f565b5b5090506108b891906108bc565b5090565b5b808211156108d55760008160009055506001016108bd565b5090565b60006108ec6108e784610d5c565b610d37565b90508281526020810184848401111561090457600080fd5b61090f848285610e90565b509392505050565b600081359050610926816110fd565b92915050565b600082601f83011261093d57600080fd5b813561094d8482602086016108d9565b91505092915050565b60006020828403121561096857600080fd5b600061097684828501610917565b91505092915050565b60006020828403121561099157600080fd5b600082013567ffffffffffffffff8111156109ab57600080fd5b6109b78482850161092c565b91505092915050565b60006109cc8383610b65565b905092915050565b6109dd81610e54565b82525050565b6109ec81610e54565b82525050565b60006109fd82610d9d565b610a078185610dc0565b935083602082028501610a1985610d8d565b8060005b85811015610a555784840389528151610a3685826109c0565b9450610a4183610db3565b925060208a01995050600181019050610a1d565b50829750879550505050505092915050565b6000610a7282610da8565b610a7c8185610ddc565b9350610a8c818560208601610e9f565b610a9581611022565b840191505092915050565b6000610aab82610da8565b610ab58185610ded565b9350610ac5818560208601610e9f565b610ace81611022565b840191505092915050565b6000610ae6602883610ded565b9150610af182611033565b604082019050919050565b6000610b09603083610ded565b9150610b1482611082565b604082019050919050565b6000610b2c600083610dd1565b9150610b37826110d1565b600082019050919050565b6000610b4f600f83610ded565b9150610b5a826110d4565b602082019050919050565b6000606083016000830151610b7d60008601826109d4565b5060208301518482036020860152610b958282610a67565b9150506040830151610baa6040860182610bb5565b508091505092915050565b610bbe81610e86565b82525050565b610bcd81610e86565b82525050565b6000610bde82610b1f565b9150819050919050565b60006020820190508181036000830152610c0281846109f2565b905092915050565b60006020820190508181036000830152610c248184610aa0565b905092915050565b60006040820190508181036000830152610c468185610aa0565b9050610c5560208301846109e3565b9392505050565b60006040820190508181036000830152610c768185610aa0565b9050610c856020830184610bc4565b9392505050565b60006020820190508181036000830152610ca581610ad9565b9050919050565b60006020820190508181036000830152610cc581610afc565b9050919050565b60006020820190508181036000830152610ce581610b42565b9050919050565b6000602082019050610d016000830184610bc4565b92915050565b6000604082019050610d1c6000830185610bc4565b8181036020830152610d2e8184610aa0565b90509392505050565b6000610d41610d52565b9050610d4d8282610f04565b919050565b6000604051905090565b600067ffffffffffffffff821115610d7757610d76610ff3565b5b610d8082611022565b9050602081019050919050565b6000819050602082019050919050565b600081519050919050565b600081519050919050565b6000602082019050919050565b600082825260208201905092915050565b600081905092915050565b600082825260208201905092915050565b600082825260208201905092915050565b6000610e0982610e86565b9150610e1483610e86565b9250827fffffffffffffffffffffffffffffffffffffffffffffffffffffffffffffffff03821115610e4957610e48610f66565b5b828201905092915050565b6000610e5f82610e66565b9050919050565b600073ffffffffffffffffffffffffffffffffffffffff82169050919050565b6000819050919050565b82818337600083830152505050565b60005b83811015610ebd578082015181840152602081019050610ea2565b83811115610ecc576000848401525b50505050565b60006002820490506001821680610eea57607f821691505b60208210811415610efe57610efd610fc4565b5b50919050565b610f0d82611022565b810181811067ffffffffffffffff82111715610f2c57610f2b610ff3565b5b80604052505050565b6000610f4082610e86565b9150610f4b83610e86565b925082610f5b57610f5a610f95565b5b828206905092915050565b7f4e487b7100000000000000000000000000000000000000000000000000000000600052601160045260246000fd5b7f4e487b7100000000000000000000000000000000000000000000000000000000600052601260045260246000fd5b7f4e487b7100000000000000000000000000000000000000000000000000000000600052602260045260246000fd5b7f4e487b7100000000000000000000000000000000000000000000000000000000600052604160045260246000fd5b6000601f19601f8301169050919050565b7f6661696c656420746f207769746864726177206574682066726f6d207468612060008201527f636f6e7472616374000000000000000000000000000000000000000000000000602082015250565b7f74686520636f6e747261637420697473656c6620646f6573206e6f742068617660008201527f652073756666696369656e742065746800000000000000000000000000000000602082015250565b50565b7f77616974203330207365636f6e64730000000000000000000000000000000000600082015250565b61110681610e54565b811461111157600080fd5b5056fea2646970667358221220db951b1eac32a8929f3456f63ac9f1ac2c377e2a9ffb709f36a07ec924f0690264736f6c63430008040033796f21206d7920666972737420636f6e74726163742077686963682068617070656e7320746f20626520736d6172742121",
  "linkReferences": {},
  "deployedLinkReferences": {}
}